{
  "contractName": "SemanticNet",
  "abi": [
    {
      "constant": true,
      "inputs": [],
      "name": "nodeNumber",
      "outputs": [
        {
          "name": "",
          "type": "uint256"
        }
      ],
      "payable": false,
      "stateMutability": "view",
      "type": "function"
    },
    {
      "constant": true,
      "inputs": [],
      "name": "mainNode",
      "outputs": [
        {
          "name": "name",
          "type": "string"
        },
        {
          "name": "uniqueIdentifier",
          "type": "bytes32"
        },
        {
          "name": "creator",
          "type": "address"
        },
        {
          "name": "votes",
          "type": "int256"
        },
        {
          "name": "parentNodeHash",
          "type": "bytes32"
        },
        {
          "name": "number",
          "type": "uint256"
        }
      ],
      "payable": false,
      "stateMutability": "view",
      "type": "function"
    },
    {
      "inputs": [],
      "payable": false,
      "stateMutability": "nonpayable",
      "type": "constructor"
    },
    {
      "anonymous": false,
      "inputs": [
        {
          "indexed": false,
          "name": "gotTo",
          "type": "string"
        }
      ],
      "name": "LogDebug",
      "type": "event"
    },
    {
      "anonymous": false,
      "inputs": [
        {
          "indexed": false,
          "name": "fromAddr",
          "type": "address"
        },
        {
          "indexed": false,
          "name": "number",
          "type": "uint256"
        },
        {
          "indexed": false,
          "name": "fullName",
          "type": "string"
        },
        {
          "indexed": false,
          "name": "uniqueNumber",
          "type": "bytes32"
        }
      ],
      "name": "AddingNode",
      "type": "event"
    },
    {
      "constant": true,
      "inputs": [
        {
          "name": "nodeIndex",
          "type": "uint256"
        }
      ],
      "name": "getNodeJson",
      "outputs": [
        {
          "name": "",
          "type": "string"
        },
        {
          "name": "",
          "type": "address"
        },
        {
          "name": "",
          "type": "string"
        },
        {
          "name": "",
          "type": "string"
        }
      ],
      "payable": false,
      "stateMutability": "view",
      "type": "function"
    },
    {
      "constant": false,
      "inputs": [
        {
          "name": "parentNumber",
          "type": "uint256"
        },
        {
          "name": "_name",
          "type": "string"
        },
        {
          "name": "_creator",
          "type": "address"
        }
      ],
      "name": "addNode",
      "outputs": [
        {
          "name": "",
          "type": "uint256"
        }
      ],
      "payable": false,
      "stateMutability": "nonpayable",
      "type": "function"
    }
  ],
  "bytecode": "0x60806040526000600b553480156200001657600080fd5b50336000806101000a81548173ffffffffffffffffffffffffffffffffffffffff021916908373ffffffffffffffffffffffffffffffffffffffff1602179055506040805190810160405280600a81526020017f426c6f636b636861696e0000000000000000000000000000000000000000000081525060016000019080519060200190620000a792919062000ca9565b50600160000160405160200180828054600181600116156101000203166002900480156200010f5780601f10620000ec5761010080835404028352918201916200010f565b820191906000526020600020905b815481529060010190602001808311620000fa575b50509150506040516020818303038152906040526040518082805190602001908083835b6020831015156200015a578051825260208201915060208101905060208303925062000133565b6001836020036101000a038019825116818451168082178552505050505050905001915050604051809103902060018001816000191690555033600160060160006101000a81548173ffffffffffffffffffffffffffffffffffffffff021916908373ffffffffffffffffffffffffffffffffffffffff160217905550600b54600160090181905550600c600080815260200190815260200160002060018001549080600181540180825580915050906001820390600052602060002001600090919290919091509060001916905550600b60008154809291906001019190505550620002af60006040805190810160405280600581526020017f426c6f636b0000000000000000000000000000000000000000000000000000008152506000809054906101000a900473ffffffffffffffffffffffffffffffffffffffff16620002b6640100000000026401000000009004565b5062000fbf565b600080600080620002c662000d30565b60006060620002d462000d4a565b6000600c60008d815260200190815260200160002097506001965060019550620004456200042b6200034f6040805190810160405280600281526020017f2d3e00000000000000000000000000000000000000000000000000000000000081525062000b1364010000000002620010c6176401000000009004565b6200040e8a6000018054600181600116156101000203166002900480601f016020809104026020016040519081016040528092919081815260200182805460018160011615610100020316600290048015620003ef5780601f10620003c357610100808354040283529160200191620003ef565b820191906000526020600020905b815481529060010190602001808311620003d157829003601f168201915b505050505062000b1364010000000002620010c6176401000000009004565b62000b4364010000000002620010f4179091906401000000009004565b62000b1364010000000002620010c6176401000000009004565b94505b8b876009015414158015620004605750878054905086105b15620006435787868154811015156200047557fe5b90600052602060002001549350866002016000856000191660001916815260200190815260200160002096506200063362000619620004fd6040805190810160405280600281526020017f2d3e00000000000000000000000000000000000000000000000000000000000081525062000b1364010000000002620010c6176401000000009004565b620005fc620005e2620005c48c6000018054600181600116156101000203166002900480601f016020809104026020016040519081016040528092919081815260200182805460018160011615610100020316600290048015620005a55780601f106200057957610100808354040283529160200191620005a5565b820191906000526020600020905b8154815290600101906020018083116200058757829003601f168201915b505050505062000b1364010000000002620010c6176401000000009004565b8a62000b4364010000000002620010f4179091906401000000009004565b62000b1364010000000002620010c6176401000000009004565b62000b4364010000000002620010f4179091906401000000009004565b62000b1364010000000002620010c6176401000000009004565b9450858060010196505062000448565b620006a2620006886200066a8d62000b1364010000000002620010c6176401000000009004565b8762000b4364010000000002620010f4179091906401000000009004565b62000b1364010000000002620010c6176401000000009004565b9450620006c38562000be86401000000000262001176176401000000009004565b92508a826000018190525089826080019073ffffffffffffffffffffffffffffffffffffffff16908173ffffffffffffffffffffffffffffffffffffffff1681525050600b548260e0018181525050826040516020018082805190602001908083835b6020831015156200074d578051825260208201915060208101905060208303925062000726565b6001836020036101000a0380198251168184511680821785525050505050509050019150506040516020818303038152906040526040518082805190602001908083835b602083101515620007b8578051825260208201915060208101905060208303925062000791565b6001836020036101000a038019825116818451168082178552505050505050905001915050604051809103902082602001906000191690816000191681525050600090505b87805490508110156200087857600c60008360e00151815260200190815260200160002088828154811015156200083057fe5b906000526020600020015490806001815401808255809150509060018203906000526020600020016000909192909190915090600019169055508080600101915050620007fd565b600c60008360e00151815260200190815260200160002082602001519080600181540180825580915050906001820390600052602060002001600090919290919091509060001916905550600b600081548092919060010191905055508187600201600084602001516000191660001916815260200190815260200160002060008201518160000190805190602001906200091592919062000dac565b506020820151816001019060001916905560408201518160030190805190602001906200094492919062000e33565b5060608201518160050190805190602001906200096392919062000e8b565b5060808201518160060160006101000a81548173ffffffffffffffffffffffffffffffffffffffff021916908373ffffffffffffffffffffffffffffffffffffffff16021790555060a0820151816007015560c0820151816008019060001916905560e0820151816009015590505086600301826020015190806001815401808255809150509060018203906000526020600020016000909192909190915090600019169055507fa9b487aa4e28cb8fec011a0dbd477bc8465b434e0306704b16190d7e9a681f198a8360e00151858560200151604051808573ffffffffffffffffffffffffffffffffffffffff1673ffffffffffffffffffffffffffffffffffffffff168152602001848152602001806020018360001916600019168152602001828103825284818151815260200191508051906020019080838360005b8381101562000abf57808201518184015260208101905062000aa2565b50505050905090810190601f16801562000aed5780820380516001836020036101000a031916815260200191505b509550505050505060405180910390a18160e00151985050505050505050509392505050565b62000b1d62000d30565b600060208301905060408051908101604052808451815260200182815250915050919050565b606080600083600001518560000151016040519080825280601f01601f19166020018201604052801562000b865781602001602082028038833980820191505090505b50915060208201905062000bb3818660200151876000015162000c5c640100000000026401000000009004565b62000bdd856000015182018560200151866000015162000c5c640100000000026401000000009004565b819250505092915050565b606080600083600001516040519080825280601f01601f19166020018201604052801562000c255781602001602082028038833980820191505090505b50915060208201905062000c52818560200151866000015162000c5c640100000000026401000000009004565b8192505050919050565b60005b60208210151562000c86578251845260208401935060208301925060208203915062000c5f565b6001826020036101000a0390508019835116818551168181178652505050505050565b828054600181600116156101000203166002900490600052602060002090601f016020900481019282601f1062000cec57805160ff191683800117855562000d1d565b8280016001018555821562000d1d579182015b8281111562000d1c57825182559160200191906001019062000cff565b5b50905062000d2c919062000ef2565b5090565b604080519081016040528060008152602001600081525090565b6101006040519081016040528060608152602001600080191681526020016060815260200160608152602001600073ffffffffffffffffffffffffffffffffffffffff1681526020016000815260200160008019168152602001600081525090565b828054600181600116156101000203166002900490600052602060002090601f016020900481019282601f1062000def57805160ff191683800117855562000e20565b8280016001018555821562000e20579182015b8281111562000e1f57825182559160200191906001019062000e02565b5b50905062000e2f919062000ef2565b5090565b82805482825590600052602060002090810192821562000e78579160200282015b8281111562000e7757825182906000191690559160200191906001019062000e54565b5b50905062000e87919062000f1a565b5090565b82805482825590600052602060002090810192821562000edf579160200282015b8281111562000ede57825182908051906020019062000ecd92919062000dac565b509160200191906001019062000eac565b5b50905062000eee919062000f42565b5090565b62000f1791905b8082111562000f1357600081600090555060010162000ef9565b5090565b90565b62000f3f91905b8082111562000f3b57600081600090555060010162000f21565b5090565b90565b62000f7091905b8082111562000f6c576000818162000f62919062000f73565b5060010162000f49565b5090565b90565b50805460018160011615610100020316600290046000825580601f1062000f9b575062000fbc565b601f01602090049060005260206000209081019062000fbb919062000ef2565b5b50565b6114bc8062000fcf6000396000f300608060405260043610610062576000357c0100000000000000000000000000000000000000000000000000000000900463ffffffff168063335e2e5e14610067578063378b27b5146100925780639685192714610243578063d95dcdc0146102ea575b600080fd5b34801561007357600080fd5b5061007c6103d9565b6040518082815260200191505060405180910390f35b34801561009e57600080fd5b506100bd600480360381019080803590602001909291905050506103df565b60405180806020018573ffffffffffffffffffffffffffffffffffffffff1673ffffffffffffffffffffffffffffffffffffffff1681526020018060200180602001848103845288818151815260200191508051906020019080838360005b8381101561013757808201518184015260208101905061011c565b50505050905090810190601f1680156101645780820380516001836020036101000a031916815260200191505b50848103835286818151815260200191508051906020019080838360005b8381101561019d578082015181840152602081019050610182565b50505050905090810190601f1680156101ca5780820380516001836020036101000a031916815260200191505b50848103825285818151815260200191508051906020019080838360005b838110156102035780820151818401526020810190506101e8565b50505050905090810190601f1680156102305780820380516001836020036101000a031916815260200191505b5097505050505050505060405180910390f35b34801561024f57600080fd5b506102d460048036038101908080359060200190929190803590602001908201803590602001908080601f0160208091040260200160405190810160405280939291908181526020018383808284378201915050505050509192919290803573ffffffffffffffffffffffffffffffffffffffff1690602001909291905050506108c3565b6040518082815260200191505060405180910390f35b3480156102f657600080fd5b506102ff610fe4565b604051808060200187600019166000191681526020018673ffffffffffffffffffffffffffffffffffffffff1673ffffffffffffffffffffffffffffffffffffffff1681526020018581526020018460001916600019168152602001838152602001828103825288818151815260200191508051906020019080838360005b8381101561039957808201518184015260208101905061037e565b50505050905090810190601f1680156103c65780820380516001836020036101000a031916815260200191505b5097505050505050505060405180910390f35b600b5481565b606060006060806000806000806103f4611223565b60006103fe611223565b6000600b5486101515610479576040517f08c379a000000000000000000000000000000000000000000000000000000000815260040180806020018281038252601d8152602001807f506c656173652070726f76696465206578697374696e6720696e64657800000081525060200191505060405180910390fd5b600c60008e8152602001908152602001600020975060019650600195505b8c8760090154141580156104ae5750878054905086105b156104fa5787868154811015156104c157fe5b90600052602060002001549450866002016000866000191660001916815260200190815260200160002096508580600101965050610497565b600092505b866005018054905083101561064a5761063b6106366105526040805190810160405280600181526020017f2c000000000000000000000000000000000000000000000000000000000000008152506110c6565b6106286106236106148c6005018981548110151561056c57fe5b906000526020600020018054600181600116156101000203166002900480601f01602080910402602001604051908101604052809291908181526020018280546001816001161561010002031660029004801561060a5780601f106105df5761010080835404028352916020019161060a565b820191906000526020600020905b8154815290600101906020018083116105ed57829003601f168201915b50505050506110c6565b896110f490919063ffffffff16565b6110c6565b6110f490919063ffffffff16565b6110c6565b935082806001019350506104ff565b61066360206040519081016040528060008152506110c6565b9150600090505b86600301805490508110156107d5576107c66107c16106bd6040805190810160405280600181526020017f2c000000000000000000000000000000000000000000000000000000000000008152506110c6565b6107b36107ae61079f8c60020160008e600301898154811015156106dd57fe5b9060005260206000200154600019166000191681526020019081526020016000206000018054600181600116156101000203166002900480601f0160208091040260200160405190810160405280929190818152602001828054600181600116156101000203166002900480156107955780601f1061076a57610100808354040283529160200191610795565b820191906000526020600020905b81548152906001019060200180831161077857829003601f168201915b50505050506110c6565b876110f490919063ffffffff16565b6110c6565b6110f490919063ffffffff16565b6110c6565b9150808060010191505061066a565b866000018760060160009054906101000a900473ffffffffffffffffffffffffffffffffffffffff1661080786611176565b61081085611176565b838054600181600116156101000203166002900480601f0160208091040260200160405190810160405280929190818152602001828054600181600116156101000203166002900480156108a55780601f1061087a576101008083540402835291602001916108a5565b820191906000526020600020905b81548152906001019060200180831161088857829003601f168201915b505050505093509b509b509b509b5050505050505050509193509193565b6000806000806108d1611223565b600060606108dd61123d565b6000600c60008d8152602001908152602001600020975060019650600195506109f86109f36109406040805190810160405280600281526020017f2d3e0000000000000000000000000000000000000000000000000000000000008152506110c6565b6109e58a6000018054600181600116156101000203166002900480601f0160208091040260200160405190810160405280929190818152602001828054600181600116156101000203166002900480156109db5780601f106109b0576101008083540402835291602001916109db565b820191906000526020600020905b8154815290600101906020018083116109be57829003601f168201915b50505050506110c6565b6110f490919063ffffffff16565b6110c6565b94505b8b876009015414158015610a125750878054905086105b15610b76578786815481101515610a2557fe5b9060005260206000200154935086600201600085600019166000191681526020019081526020016000209650610b67610b62610a956040805190810160405280600281526020017f2d3e0000000000000000000000000000000000000000000000000000000000008152506110c6565b610b54610b4f610b408c6000018054600181600116156101000203166002900480601f016020809104026020016040519081016040528092919081815260200182805460018160011615610100020316600290048015610b365780601f10610b0b57610100808354040283529160200191610b36565b820191906000526020600020905b815481529060010190602001808311610b1957829003601f168201915b50505050506110c6565b8a6110f490919063ffffffff16565b6110c6565b6110f490919063ffffffff16565b6110c6565b945085806001019650506109fb565b610b99610b94610b858d6110c6565b876110f490919063ffffffff16565b6110c6565b9450610ba485611176565b92508a826000018190525089826080019073ffffffffffffffffffffffffffffffffffffffff16908173ffffffffffffffffffffffffffffffffffffffff1681525050600b548260e0018181525050826040516020018082805190602001908083835b602083101515610c2c5780518252602082019150602081019050602083039250610c07565b6001836020036101000a0380198251168184511680821785525050505050509050019150506040516020818303038152906040526040518082805190602001908083835b602083101515610c955780518252602082019150602081019050602083039250610c70565b6001836020036101000a038019825116818451168082178552505050505050905001915050604051809103902082602001906000191690816000191681525050600090505b8780549050811015610d5257600c60008360e0015181526020019081526020016000208882815481101515610d0b57fe5b906000526020600020015490806001815401808255809150509060018203906000526020600020016000909192909190915090600019169055508080600101915050610cda565b600c60008360e00151815260200190815260200160002082602001519080600181540180825580915050906001820390600052602060002001600090919290919091509060001916905550600b60008154809291906001019190505550818760020160008460200151600019166000191681526020019081526020016000206000820151816000019080519060200190610ded92919061129f565b50602082015181600101906000191690556040820151816003019080519060200190610e1a92919061131f565b506060820151816005019080519060200190610e37929190611372565b5060808201518160060160006101000a81548173ffffffffffffffffffffffffffffffffffffffff021916908373ffffffffffffffffffffffffffffffffffffffff16021790555060a0820151816007015560c0820151816008019060001916905560e0820151816009015590505086600301826020015190806001815401808255809150509060018203906000526020600020016000909192909190915090600019169055507fa9b487aa4e28cb8fec011a0dbd477bc8465b434e0306704b16190d7e9a681f198a8360e00151858560200151604051808573ffffffffffffffffffffffffffffffffffffffff1673ffffffffffffffffffffffffffffffffffffffff168152602001848152602001806020018360001916600019168152602001828103825284818151815260200191508051906020019080838360005b83811015610f91578082015181840152602081019050610f76565b50505050905090810190601f168015610fbe5780820380516001836020036101000a031916815260200191505b509550505050505060405180910390a18160e00151985050505050505050509392505050565b6001806000018054600181600116156101000203166002900480601f01602080910402602001604051908101604052809291908181526020018280546001816001161561010002031660029004801561107e5780601f106110535761010080835404028352916020019161107e565b820191906000526020600020905b81548152906001019060200180831161106157829003601f168201915b5050505050908060010154908060060160009054906101000a900473ffffffffffffffffffffffffffffffffffffffff16908060070154908060080154908060090154905086565b6110ce611223565b600060208301905060408051908101604052808451815260200182815250915050919050565b606080600083600001518560000151016040519080825280601f01601f1916602001820160405280156111365781602001602082028038833980820191505090505b50915060208201905061115281866020015187600001516111d8565b61116b85600001518201856020015186600001516111d8565b819250505092915050565b606080600083600001516040519080825280601f01601f1916602001820160405280156111b25781602001602082028038833980820191505090505b5091506020820190506111ce81856020015186600001516111d8565b8192505050919050565b60005b60208210151561120057825184526020840193506020830192506020820391506111db565b6001826020036101000a0390508019835116818551168181178652505050505050565b604080519081016040528060008152602001600081525090565b6101006040519081016040528060608152602001600080191681526020016060815260200160608152602001600073ffffffffffffffffffffffffffffffffffffffff1681526020016000815260200160008019168152602001600081525090565b828054600181600116156101000203166002900490600052602060002090601f016020900481019282601f106112e057805160ff191683800117855561130e565b8280016001018555821561130e579182015b8281111561130d5782518255916020019190600101906112f2565b5b50905061131b91906113d2565b5090565b828054828255906000526020600020908101928215611361579160200282015b8281111561136057825182906000191690559160200191906001019061133f565b5b50905061136e91906113f7565b5090565b8280548282559060005260206000209081019282156113c1579160200282015b828111156113c05782518290805190602001906113b092919061129f565b5091602001919060010190611392565b5b5090506113ce919061141c565b5090565b6113f491905b808211156113f05760008160009055506001016113d8565b5090565b90565b61141991905b808211156114155760008160009055506001016113fd565b5090565b90565b61144591905b8082111561144157600081816114389190611448565b50600101611422565b5090565b90565b50805460018160011615610100020316600290046000825580601f1061146e575061148d565b601f01602090049060005260206000209081019061148c91906113d2565b5b505600a165627a7a72305820db809c779b8786f68dae1e97ad07985ca082686567063c03ddc00f6d37bbc7b70029",
  "source": "\r\npragma solidity ^0.4.24;\r\nimport \"./strings.sol\";\r\n//import \"./ConcatUtils.sol\";\r\n\r\n\r\ncontract SemanticNet {\r\n    \r\n      using strings for *;\r\n      \r\n\r\n      \r\n      event LogDebug(string gotTo);\r\n      event AddingNode(address fromAddr, uint number,string fullName,bytes32 uniqueNumber);\r\n        \r\n    address private owner;\r\n    Node public mainNode;\r\n    uint public nodeNumber = 0;\r\n    //additional map to simplify the search in the tree\r\n    //contains node number -> uniqueIdentifier of all nested items\r\n    mapping(uint=>bytes32[]) flattenTree;\r\n    \r\n    constructor() public{\r\n        owner = msg.sender;\r\n        mainNode.name = \"Blockchain\";\r\n       // mainNode.name = sha3(mainNode.name);\r\n         mainNode.uniqueIdentifier = keccak256(abi.encodePacked(mainNode.name));\r\n         mainNode.creator = msg.sender;\r\n         mainNode.number = nodeNumber;\r\n         flattenTree[0].push(mainNode.uniqueIdentifier);\r\n         \r\n         nodeNumber++;\r\n        \r\n         addNode(0,\"Block\",owner); //1\r\n        //  addNode(1,\"Transaction\",owner); //2\r\n        //  addNode(0,\"Node\",owner); //3\r\n        //  addNode(3,\"Peer\",owner);//4\r\n        //  addNode(0,\"Miner\",owner);//5\r\n        //  addNode(0,\"Wallet\",owner);//6\r\n    }\r\n    \r\n    //name,creator,resourcesJoined, childrenJoined\r\n    function getNodeJson(uint nodeIndex) view public returns (string,address,string,string){\r\n        require(index<nodeNumber, \"Please provide existing index\");\r\n        \r\n        bytes32[] storage pathToNode = flattenTree[nodeIndex];\r\n        Node storage  ourNode = mainNode;\r\n        uint  index = 1;\r\n\r\n        //constant speed of searching\r\n        while(ourNode.number!= nodeIndex && index < pathToNode.length){\r\n            \r\n            bytes32 nextItem = pathToNode[index];\r\n            ourNode = ourNode.children[nextItem];\r\n            \r\n            index++;\r\n        }\r\n        \r\n        strings.slice memory resources;\r\n           for (uint i=0; i< ourNode.resourcesKeys.length; i++) {\r\n          \r\n           resources = resources\r\n           .concat(ourNode.resourcesKeys[i].toSlice()).toSlice()\r\n           .concat(\",\".toSlice()).toSlice();\r\n           \r\n        }\r\n        \r\n            strings.slice memory childrenItems = \"\".toSlice();\r\n          for (uint j=0; j< ourNode.childrenKeys.length; j++) {\r\n          \r\n          childrenItems = childrenItems\r\n          .concat(ourNode.children[ourNode.childrenKeys[j]].name.toSlice()).toSlice()\r\n          .concat(\",\".toSlice()).toSlice();\r\n         }\r\n        \r\n        //       string memory childrenItems = \"{\";\r\n        //   for (uint j=0; j< ourNode.childrenKeys.length; j++) {\r\n          \r\n        //   uint number = ourNode.children[ourNode.childrenKeys[j]].number;\r\n        //   string  numberStr = uintToString(number);\r\n        //   string name = ourNode.children[ourNode.childrenKeys[j]].name;\r\n        //   string pair = concatTwoStrings(numberStr,name,\":\");\r\n          \r\n        //   childrenItems = concatTwoStrings(childrenItems,pair, \"\"); \r\n        //   childrenItems\r\n        //   .concat(ourNode.children[ourNode.childrenKeys[j]].name.toSlice()).toSlice()\r\n        //   .concat(\",\".toSlice()).toSlice();\r\n        //  }\r\n        \r\n        return (ourNode.name, ourNode.creator,resources.toString(),childrenItems.toString());\r\n        \r\n        \r\n        // string[] memory resources;\r\n        //  for (uint i=0; i< ourNode.resourcesKeys.length; i++) {\r\n          \r\n        //   strings.slice memory resourceKeyValue \r\n        //   = ourNode.resourcesKeys[i].toSlice().concat(\":\".toSlice()).toSlice()\r\n        //   .concat(ourNode..toSlice()).toSlice();\r\n        // }\r\n        \r\n        \r\n        \r\n        \r\n    }\r\n    \r\n    // function findParentNode(uint number,Node node) internal pure returns (Node){\r\n    //     if(node.number == number){\r\n    //         return node;\r\n    //     }else{\r\n    //          for (uint i=0; i<node.childrenKeys.length; i++) {\r\n                 \r\n    //           findParentNode(number,node.children[node.childrenKeys[i]]);  \r\n              \r\n              \r\n    //         }\r\n    //     }\r\n    // }\r\n    \r\n     modifier notDuplicate(uint parentNumber, string _name)\r\n    {\r\n        bytes32[] storage pathToNode = flattenTree[parentNumber];\r\n        Node storage  parentNode = mainNode;\r\n        uint  index = 1;\r\n\r\n        while(parentNode.number!=parentNumber && index < pathToNode.length){\r\n            \r\n            bytes32 nextItem = pathToNode[index];\r\n            parentNode = parentNode.children[nextItem];\r\n            index++;\r\n        }\r\n        \r\n        bool hasSameChild = false;\r\n        //\"foobie\".toSlice().compare(\"foobie\".toSlice()\r\n        for (uint j=0; j<parentNode.childrenKeys.length; j++) {\r\n            Node child = parentNode.children[parentNode.childrenKeys[j]];\r\n            int compareResult = child.name.toSlice().compare(\"foobie\".toSlice());\r\n            if(compareResult==0){\r\n                hasSameChild = true;\r\n                break;\r\n            }\r\n        }\r\n        \r\n        require(!hasSameChild,\"You cannot add duplicate child on certain node\");\r\n        \r\n       \r\n        // Do not forget the \"_;\"! It will\r\n        // be replaced by the actual function\r\n        // body when the modifier is used.\r\n        _;\r\n    }\r\n    \r\n    \r\n    function addNode(uint parentNumber, string _name, address _creator) public  returns (uint){ //notDuplicate(parentNumber, _name)\r\n        \r\n\r\n        bytes32[] storage pathToNode = flattenTree[parentNumber];\r\n        Node storage  parentNode = mainNode;\r\n        uint  index = 1;\r\n        // emit LogDebug(\"Got to 51\");\r\n        //prepare string to be concatenated\r\n        strings.slice memory uniqueIdentifierPath = parentNode.name.toSlice().concat(\"->\".toSlice()).toSlice();\r\n\r\n        while(parentNode.number!=parentNumber && index < pathToNode.length){\r\n            \r\n            bytes32 nextItem = pathToNode[index];\r\n            parentNode = parentNode.children[nextItem];\r\n        \r\n            uniqueIdentifierPath = uniqueIdentifierPath\r\n                                  .concat(parentNode.name.toSlice()).toSlice()\r\n                                  .concat(\"->\".toSlice()).toSlice();\r\n            index++;\r\n        }\r\n        \r\n        uniqueIdentifierPath = uniqueIdentifierPath.concat(_name.toSlice()).toSlice();\r\n        string memory fullName = uniqueIdentifierPath.toString();\r\n     \r\n        Node memory newNode;\r\n        newNode.name = _name;\r\n        newNode.creator = _creator;\r\n        newNode.number = nodeNumber;\r\n        newNode.uniqueIdentifier = keccak256(abi.encodePacked(fullName));\r\n        // emit LogDebug(\"Got to 75\");\r\n        \r\n        //copy the path to the parent in the flatten array of the new Item: ???\r\n        for (uint i=0; i<pathToNode.length; i++) {\r\n          flattenTree[newNode.number].push(pathToNode[i]);\r\n        }\r\n        \r\n        //keeping the flatten array actual\r\n        flattenTree[newNode.number].push(newNode.uniqueIdentifier);\r\n        \r\n        \r\n        nodeNumber++;   \r\n        \r\n        parentNode.children[newNode.uniqueIdentifier] = newNode;\r\n        parentNode.childrenKeys.push(newNode.uniqueIdentifier);\r\n        \r\n        emit AddingNode(_creator,newNode.number,fullName,newNode.uniqueIdentifier);\r\n        \r\n        return newNode.number;\r\n    }\r\n    \r\n    \r\n      enum ReseurceType {\r\n        url,doc,docx,ppt,pptx, sol\r\n    }\r\n    \r\n    // function checkChildrenForDuplicats(Node node, string name) internal pure returns (bool isDuplicate){\r\n        \r\n    //       for (uint j=0; j<node.childrenKeys.length; j++) {\r\n    //         Node  child = node.children[node.childrenKeys[j]];\r\n    //         int compareResult = child.name.toSlice().compare(\"foobie\".toSlice());\r\n    //     }\r\n    // } \r\n    \r\n    \r\n    //Represents entity in the Blockchain Semantic Net\r\n    struct Node {\r\n    \r\n        //the term\r\n        //shoud be unique in it's own chain (containing parent names)\r\n        //for example: \r\n        //Blockchain->Node->Transaction is OK\r\n        //|>address -> Transaction is OK\r\n        string name;\r\n        \r\n        //keccak256 of the name + parent names recursivly \r\n        bytes32 uniqueIdentifier;\r\n        \r\n        //TODO: think about if should be tree or Graph???\r\n        \r\n        //related terms in format unique Identifier => node\r\n        mapping(bytes32 => Node)  children;\r\n        \r\n        //helper arrrays \r\n        bytes32[] childrenKeys;\r\n        \r\n      \r\n        //ipfs hash of term resource\r\n        mapping(string=>ReseurceType)  resourcesHashes;\r\n        \r\n        string[] resourcesKeys;\r\n        \r\n        address  creator ;\r\n        //can be positive or nagative value\r\n        int votes;\r\n        //The parent node if has any\r\n        bytes32   parentNodeHash ;\r\n        \r\n        //autoincrement unique number;\r\n        uint number;\r\n        \r\n    }\r\n    \r\n    \r\n\r\n}\r\n\r\n//Getting ideas from\r\n//http://www.introprogramming.info/english-intro-csharp-book/read-online/chapter-17-trees-and-graphs/\r\n//https://medium.com/coinmonks/linked-lists-in-solidity-cfd967af389b",
  "sourcePath": "F:\\softuni\\blockchain\\Single Project\\Blockchain Semantic Web\\BlockchainSemanticNet\\truffle\\contracts\\SemanticNet.sol",
  "compiler": {
    "name": "solc",
    "version": "0.4.24+commit.e67f0147.Emscripten.clang"
  },
  "schemaVersion": "2.0.1",
  "updatedAt": "2018-07-06T12:27:47.833Z"
}