{
  "contractName": "SemanticNet",
  "abi": [
    {
      "constant": true,
      "inputs": [],
      "name": "nodeNumber",
      "outputs": [
        {
          "name": "",
          "type": "uint256"
        }
      ],
      "payable": false,
      "stateMutability": "view",
      "type": "function"
    },
    {
      "constant": true,
      "inputs": [],
      "name": "owner",
      "outputs": [
        {
          "name": "",
          "type": "address"
        }
      ],
      "payable": false,
      "stateMutability": "view",
      "type": "function"
    },
    {
      "constant": true,
      "inputs": [],
      "name": "mainNode",
      "outputs": [
        {
          "name": "name",
          "type": "string"
        },
        {
          "name": "creator",
          "type": "address"
        },
        {
          "name": "votes",
          "type": "int256"
        },
        {
          "name": "parentNodeHash",
          "type": "bytes32"
        },
        {
          "name": "number",
          "type": "uint256"
        }
      ],
      "payable": false,
      "stateMutability": "view",
      "type": "function"
    },
    {
      "constant": true,
      "inputs": [
        {
          "name": "",
          "type": "address"
        }
      ],
      "name": "votesSum",
      "outputs": [
        {
          "name": "",
          "type": "int256"
        }
      ],
      "payable": false,
      "stateMutability": "view",
      "type": "function"
    },
    {
      "constant": true,
      "inputs": [
        {
          "name": "",
          "type": "uint256"
        },
        {
          "name": "",
          "type": "uint256"
        }
      ],
      "name": "flattenTree",
      "outputs": [
        {
          "name": "",
          "type": "uint256"
        }
      ],
      "payable": false,
      "stateMutability": "view",
      "type": "function"
    },
    {
      "inputs": [],
      "payable": false,
      "stateMutability": "nonpayable",
      "type": "constructor"
    },
    {
      "anonymous": false,
      "inputs": [
        {
          "indexed": false,
          "name": "gotTo",
          "type": "string"
        }
      ],
      "name": "LogDebug",
      "type": "event"
    },
    {
      "anonymous": false,
      "inputs": [
        {
          "indexed": false,
          "name": "fromAddr",
          "type": "address"
        },
        {
          "indexed": false,
          "name": "number",
          "type": "uint256"
        },
        {
          "indexed": false,
          "name": "fullName",
          "type": "string"
        }
      ],
      "name": "AddingNode",
      "type": "event"
    },
    {
      "constant": true,
      "inputs": [
        {
          "name": "user",
          "type": "address"
        }
      ],
      "name": "getUserVotes",
      "outputs": [
        {
          "name": "",
          "type": "int256"
        }
      ],
      "payable": false,
      "stateMutability": "view",
      "type": "function"
    },
    {
      "constant": false,
      "inputs": [
        {
          "name": "positive",
          "type": "bool"
        },
        {
          "name": "nodeIndex",
          "type": "uint256"
        }
      ],
      "name": "vote",
      "outputs": [],
      "payable": false,
      "stateMutability": "nonpayable",
      "type": "function"
    },
    {
      "constant": false,
      "inputs": [
        {
          "name": "nodeIndex",
          "type": "uint256"
        },
        {
          "name": "resourcesCount",
          "type": "uint256"
        },
        {
          "name": "hashes",
          "type": "string"
        },
        {
          "name": "contentTypes",
          "type": "string"
        }
      ],
      "name": "addResources",
      "outputs": [],
      "payable": false,
      "stateMutability": "nonpayable",
      "type": "function"
    },
    {
      "constant": true,
      "inputs": [
        {
          "name": "nodeIndex",
          "type": "uint256"
        }
      ],
      "name": "getNodeJson",
      "outputs": [
        {
          "name": "",
          "type": "string"
        },
        {
          "name": "",
          "type": "address"
        },
        {
          "name": "",
          "type": "string"
        },
        {
          "name": "",
          "type": "string"
        },
        {
          "name": "",
          "type": "int256"
        }
      ],
      "payable": false,
      "stateMutability": "view",
      "type": "function"
    },
    {
      "constant": false,
      "inputs": [
        {
          "name": "parentNumber",
          "type": "uint256"
        },
        {
          "name": "nodeIndex",
          "type": "uint256"
        }
      ],
      "name": "removeNode",
      "outputs": [],
      "payable": false,
      "stateMutability": "nonpayable",
      "type": "function"
    },
    {
      "constant": false,
      "inputs": [
        {
          "name": "parentNumber",
          "type": "uint256"
        },
        {
          "name": "_name",
          "type": "string"
        }
      ],
      "name": "addNode",
      "outputs": [
        {
          "name": "",
          "type": "uint256"
        }
      ],
      "payable": false,
      "stateMutability": "nonpayable",
      "type": "function"
    }
  ],
  "bytecode": "0x608060405260006009553480156200001657600080fd5b50336000806101000a81548173ffffffffffffffffffffffffffffffffffffffff021916908373ffffffffffffffffffffffffffffffffffffffff1602179055506040805190810160405280600a81526020017f426c6f636b636861696e0000000000000000000000000000000000000000000081525060016000019080519060200190620000a792919062000ac8565b5033600160040160006101000a81548173ffffffffffffffffffffffffffffffffffffffff021916908373ffffffffffffffffffffffffffffffffffffffff160217905550600954600160070181905550600a600080815260200190815260200160002060095490806001815401808255809150509060018203906000526020600020016000909192909190915055506009600081548092919060010191905055506200019a60006040805190810160405280600581526020017f426c6f636b00000000000000000000000000000000000000000000000000000081525062000297640100000000026401000000009004565b50620001ec60016040805190810160405280600b81526020017f5472616e73616374696f6e00000000000000000000000000000000000000000081525062000297640100000000026401000000009004565b506200023e60006040805190810160405280600481526020017f4e6f64650000000000000000000000000000000000000000000000000000000081525062000297640100000000026401000000009004565b506200029060036040805190810160405280600481526020017f506565720000000000000000000000000000000000000000000000000000000081525062000297640100000000026401000000009004565b5062000da5565b6000806000806000806000806000620002af62000b4f565b6000600a60008e8152602001908152602001600020995060019850600197505b8c896007015414158015620002e75750898054905088105b156200032e578988815481101515620002fc57fe5b9060005260206000200154965088600101600088815260200190815260200160002098508780600101985050620002cf565b60009550600094505b88600201805490508510156200049d578860010160008a600201878154811015156200035f57fe5b906000526020600020015481526020019081526020016000209350620004796200039d8d620009aa6401000000000262001b86176401000000009004565b6200045c866000018054600181600116156101000203166002900480601f0160208091040260200160405190810160405280929190818152602001828054600181600116156101000203166002900480156200043d5780601f1062000411576101008083540402835291602001916200043d565b820191906000526020600020905b8154815290600101906020018083116200041f57829003601f168201915b5050505050620009aa6401000000000262001b86176401000000009004565b620009da6401000000000262001f13179091906401000000009004565b925060008314156200048f57600195506200049d565b848060010195505062000337565b851515156200053a576040517f08c379a000000000000000000000000000000000000000000000000000000000815260040180806020018281038252602e8152602001807f596f752063616e6e6f7420616464206475706c6963617465206368696c64206f81526020017f6e206365727461696e206e6f646500000000000000000000000000000000000081525060400191505060405180910390fd5b8860040160009054906101000a900473ffffffffffffffffffffffffffffffffffffffff1673ffffffffffffffffffffffffffffffffffffffff163373ffffffffffffffffffffffffffffffffffffffff16141580620005e657506000809054906101000a900473ffffffffffffffffffffffffffffffffffffffff1673ffffffffffffffffffffffffffffffffffffffff163373ffffffffffffffffffffffffffffffffffffffff16145b151562000681576040517f08c379a000000000000000000000000000000000000000000000000000000000815260040180806020018281038252602e8152602001807f596f752063616e6e6f74206164642076616c696461746520796f7572206e6f6481526020017f6520627920796f75722073656c6600000000000000000000000000000000000081525060400191505060405180910390fd5b8b826000018190525033826060019073ffffffffffffffffffffffffffffffffffffffff16908173ffffffffffffffffffffffffffffffffffffffff16815250506009548260c0018181525050600090505b89805490508110156200074857600a60008360c0015181526020019081526020016000208a828154811015156200070657fe5b906000526020600020015490806001815401808255809150509060018203906000526020600020016000909192909190915055508080600101915050620006d3565b600a60008360c0015181526020019081526020016000208260c0015190806001815401808255809150509060018203906000526020600020016000909192909190915055508189600101600060095481526020019081526020016000206000820151816000019080519060200190620007c392919062000ba6565b506020820151816002019080519060200190620007e292919062000c2d565b5060408201518160030190805190602001906200080192919062000c7f565b5060608201518160040160006101000a81548173ffffffffffffffffffffffffffffffffffffffff021916908373ffffffffffffffffffffffffffffffffffffffff1602179055506080820151816005015560a0820151816006019060001916905560c08201518160070155905050886002018260c0015190806001815401808255809150509060018203906000526020600020016000909192909190915055507f6b97cad4091131df29b56bb9e184165f2912b9e99453d1795a7bb90bbc31dcba338360c001518e604051808473ffffffffffffffffffffffffffffffffffffffff1673ffffffffffffffffffffffffffffffffffffffff16815260200183815260200180602001828103825283818151815260200191508051906020019080838360005b838110156200094457808201518184015260208101905062000927565b50505050905090810190601f168015620009725780820380516001836020036101000a031916815260200191505b5094505050505060405180910390a16009600081548092919060010191905055508160c001519a505050505050505050505092915050565b620009b462000ce6565b600060208301905060408051908101604052808451815260200182815250915050919050565b60008060008060008060008060008a6000015197508a600001518a60000151101562000a0857896000015197505b8a60200151965089602001519550600094505b8785101562000aac578651935085519250828414151562000a94577fffffffffffffffffffffffffffffffffffffffffffffffffffffffffffffffff9150602088101562000a7657600185896020030160080260020a031991505b81831682851603905060008114151562000a935780985062000aba565b5b60208701965060208601955060208501945062000a1b565b89600001518b600001510398505b505050505050505092915050565b828054600181600116156101000203166002900490600052602060002090601f016020900481019282601f1062000b0b57805160ff191683800117855562000b3c565b8280016001018555821562000b3c579182015b8281111562000b3b57825182559160200191906001019062000b1e565b5b50905062000b4b919062000d00565b5090565b60e060405190810160405280606081526020016060815260200160608152602001600073ffffffffffffffffffffffffffffffffffffffff1681526020016000815260200160008019168152602001600081525090565b828054600181600116156101000203166002900490600052602060002090601f016020900481019282601f1062000be957805160ff191683800117855562000c1a565b8280016001018555821562000c1a579182015b8281111562000c1957825182559160200191906001019062000bfc565b5b50905062000c29919062000d00565b5090565b82805482825590600052602060002090810192821562000c6c579160200282015b8281111562000c6b57825182559160200191906001019062000c4e565b5b50905062000c7b919062000d00565b5090565b82805482825590600052602060002090810192821562000cd3579160200282015b8281111562000cd257825182908051906020019062000cc192919062000ba6565b509160200191906001019062000ca0565b5b50905062000ce2919062000d28565b5090565b604080519081016040528060008152602001600081525090565b62000d2591905b8082111562000d2157600081600090555060010162000d07565b5090565b90565b62000d5691905b8082111562000d52576000818162000d48919062000d59565b5060010162000d2f565b5090565b90565b50805460018160011615610100020316600290046000825580601f1062000d81575062000da2565b601f01602090049060005260206000209081019062000da1919062000d00565b5b50565b6124508062000db56000396000f3006080604052600436106100af576000357c0100000000000000000000000000000000000000000000000000000000900463ffffffff16806310e6e06c146100b45780632405d54c146100ed5780633320c2ee146101b0578063335e2e5e146101e7578063378b27b5146102125780638da5cb5b146103ca578063916d7b9914610421578063950c7822146104a8578063d95dcdc0146104ff578063de55d1f9146105df578063df7a05da14610636575b600080fd5b3480156100c057600080fd5b506100eb60048036038101908080351515906020019092919080359060200190929190505050610681565b005b3480156100f957600080fd5b506101ae6004803603810190808035906020019092919080359060200190929190803590602001908201803590602001908080601f0160208091040260200160405190810160405280939291908181526020018383808284378201915050505050509192919290803590602001908201803590602001908080601f0160208091040260200160405190810160405280939291908181526020018383808284378201915050505050509192919290505050610824565b005b3480156101bc57600080fd5b506101e56004803603810190808035906020019092919080359060200190929190505050610adf565b005b3480156101f357600080fd5b506101fc610ee6565b6040518082815260200191505060405180910390f35b34801561021e57600080fd5b5061023d60048036038101908080359060200190929190505050610eec565b60405180806020018673ffffffffffffffffffffffffffffffffffffffff1673ffffffffffffffffffffffffffffffffffffffff1681526020018060200180602001858152602001848103845289818151815260200191508051906020019080838360005b838110156102bd5780820151818401526020810190506102a2565b50505050905090810190601f1680156102ea5780820380516001836020036101000a031916815260200191505b50848103835287818151815260200191508051906020019080838360005b83811015610323578082015181840152602081019050610308565b50505050905090810190601f1680156103505780820380516001836020036101000a031916815260200191505b50848103825286818151815260200191508051906020019080838360005b8381101561038957808201518184015260208101905061036e565b50505050905090810190601f1680156103b65780820380516001836020036101000a031916815260200191505b509850505050505050505060405180910390f35b3480156103d657600080fd5b506103df61133b565b604051808273ffffffffffffffffffffffffffffffffffffffff1673ffffffffffffffffffffffffffffffffffffffff16815260200191505060405180910390f35b34801561042d57600080fd5b5061049260048036038101908080359060200190929190803590602001908201803590602001908080601f0160208091040260200160405190810160405280939291908181526020018383808284378201915050505050509192919290505050611360565b6040518082815260200191505060405180910390f35b3480156104b457600080fd5b506104e9600480360381019080803573ffffffffffffffffffffffffffffffffffffffff169060200190929190505050611a19565b6040518082815260200191505060405180910390f35b34801561050b57600080fd5b50610514611a62565b60405180806020018673ffffffffffffffffffffffffffffffffffffffff1673ffffffffffffffffffffffffffffffffffffffff1681526020018581526020018460001916600019168152602001838152602001828103825287818151815260200191508051906020019080838360005b838110156105a0578082015181840152602081019050610585565b50505050905090810190601f1680156105cd5780820380516001836020036101000a031916815260200191505b50965050505050505060405180910390f35b3480156105eb57600080fd5b50610620600480360381019080803573ffffffffffffffffffffffffffffffffffffffff169060200190929190505050611b3e565b6040518082815260200191505060405180910390f35b34801561064257600080fd5b5061066b6004803603810190808035906020019092919080359060200190929190505050611b56565b6040518082815260200191505060405180910390f35b600080600080600a6000868152602001908152602001600020935060019250600191505b848360070154141580156106bc5750838054905082105b156107005783828154811015156106cf57fe5b90600052602060002001549050826001016000828152602001908152602001600020925081806001019250506106a5565b8515610792578260050160008154809291906001019190505550600b60008460040160009054906101000a900473ffffffffffffffffffffffffffffffffffffffff1673ffffffffffffffffffffffffffffffffffffffff1673ffffffffffffffffffffffffffffffffffffffff1681526020019081526020016000206000815480929190600101919050555061081c565b826005016000815480929190600190039190505550600b60008460040160009054906101000a900473ffffffffffffffffffffffffffffffffffffffff1673ffffffffffffffffffffffffffffffffffffffff1673ffffffffffffffffffffffffffffffffffffffff16815260200190815260200160002060008154809291906001900391905055505b505050505050565b60008060008061083261212b565b61083a61212b565b61084261212b565b61084a61212b565b60008c600954811015156108c6576040517f08c379a000000000000000000000000000000000000000000000000000000000815260040180806020018281038252601d8152602001807f506c656173652070726f76696465206578697374696e6720696e64657800000081525060200191505060405180910390fd5b600a60008f8152602001908152602001600020995060019850600197505b8d8960070154141580156108fb5750898054905088105b1561093f57898881548110151561090e57fe5b90600052602060002001549650886001016000888152602001908152602001600020985087806001019850506108e4565b6109488c611b86565b95506109538b611b86565b9450600091505b8c821015610acf576109b46109a36040805190810160405280600181526020017f2c00000000000000000000000000000000000000000000000000000000000000815250611b86565b8588611bb49092919063ffffffff16565b50610a076109f66040805190810160405280600181526020017f2c00000000000000000000000000000000000000000000000000000000000000815250611b86565b8487611bb49092919063ffffffff16565b5088600301610a86610a81610a7c86610a6e610a69610a5a6040805190810160405280600181526020017f2d00000000000000000000000000000000000000000000000000000000000000815250611b86565b8b611c5290919063ffffffff16565b611b86565b611c5290919063ffffffff16565b611b86565b611cd4565b9080600181540180825580915050906001820390600052602060002001600090919290919091509080519060200190610ac0929190612145565b5050818060010192505061095a565b5050505050505050505050505050565b60008060008060008060008760095481101515610b64576040517f08c379a000000000000000000000000000000000000000000000000000000000815260040180806020018281038252601d8152602001807f506c656173652070726f76696465206578697374696e6720696e64657800000081525060200191505060405180910390fd5b600a60008b8152602001908152602001600020975060019650600195505b89876007015414158015610b995750878054905086105b15610bdd578786815481101515610bac57fe5b9060005260206000200154945086600101600086815260200190815260200160002096508580600101965050610b82565b8660010160008a8152602001908152602001600020935060008460020180549050141515610c73576040517f08c379a000000000000000000000000000000000000000000000000000000000815260040180806020018281038252601f8152602001807f596f752063616e6e6f742064656c65746520636f6e6669726564206e6f64650081525060200191505060405180910390fd5b3373ffffffffffffffffffffffffffffffffffffffff168460040160009054906101000a900473ffffffffffffffffffffffffffffffffffffffff1673ffffffffffffffffffffffffffffffffffffffff161480610d4157506000809054906101000a900473ffffffffffffffffffffffffffffffffffffffff1673ffffffffffffffffffffffffffffffffffffffff168460040160009054906101000a900473ffffffffffffffffffffffffffffffffffffffff1673ffffffffffffffffffffffffffffffffffffffff16145b1515610ddb576040517f08c379a00000000000000000000000000000000000000000000000000000000081526004018080602001828103825260268152602001807f4f6e6c79207468652063726561746f72206f66206e6f64652063616e2064656c81526020017f657465206974000000000000000000000000000000000000000000000000000081525060400191505060405180910390fd5b8660010160008a815260200190815260200160002060008082016000610e0191906121c5565b600282016000610e11919061220d565b600382016000610e21919061222e565b6004820160006101000a81549073ffffffffffffffffffffffffffffffffffffffff0219169055600582016000905560068201600090556007820160009055505060018760020180549050039250600091505b8660020180549050821015610ebb57888760020183815481101515610e9557fe5b90600052602060002001541415610eae57819250610ebb565b8180600101925050610e74565b8660020183815481101515610ecc57fe5b906000526020600020016000905550505050505050505050565b60095481565b606060006060806000806000806000610f0361212b565b6000610f0d61212b565b60006009548e101515610f88576040517f08c379a000000000000000000000000000000000000000000000000000000000815260040180806020018281038252601d8152602001807f506c656173652070726f76696465206578697374696e6720696e64657800000081525060200191505060405180910390fd5b600a60008f8152602001908152602001600020975060019650600195505b8d876007015414158015610fbd5750878054905086105b15611001578786815481101515610fd057fe5b9060005260206000200154945086600101600086815260200190815260200160002096508580600101965050610fa6565b600092505b86600301805490508310156111515761114261113d6110596040805190810160405280600181526020017f2c00000000000000000000000000000000000000000000000000000000000000815250611b86565b61112f61112a61111b8c6003018981548110151561107357fe5b906000526020600020018054600181600116156101000203166002900480601f0160208091040260200160405190810160405280929190818152602001828054600181600116156101000203166002900480156111115780601f106110e657610100808354040283529160200191611111565b820191906000526020600020905b8154815290600101906020018083116110f457829003601f168201915b5050505050611b86565b89611c5290919063ffffffff16565b611b86565b611c5290919063ffffffff16565b611b86565b93508280600101935050611006565b61116a6020604051908101604052806000815250611b86565b9150600090505b8660020180549050811015611244576112356112306111c46040805190810160405280600181526020017f2c00000000000000000000000000000000000000000000000000000000000000815250611b86565b61122261121d61120e6112098d60010160008f6002018a8154811015156111e757fe5b9060005260206000200154815260200190815260200160002060070154611d36565b611b86565b87611c5290919063ffffffff16565b611b86565b611c5290919063ffffffff16565b611b86565b91508080600101915050611171565b866000018760040160009054906101000a900473ffffffffffffffffffffffffffffffffffffffff1661127686611cd4565b61127f85611cd4565b8a60050154848054600181600116156101000203166002900480601f0160208091040260200160405190810160405280929190818152602001828054600181600116156101000203166002900480156113195780601f106112ee57610100808354040283529160200191611319565b820191906000526020600020905b8154815290600101906020018083116112fc57829003601f168201915b505050505094509c509c509c509c509c50505050505050505091939590929450565b6000809054906101000a900473ffffffffffffffffffffffffffffffffffffffff1681565b600080600080600080600080600061137661224f565b6000600a60008e8152602001908152602001600020995060019850600197505b8c8960070154141580156113ad5750898054905088105b156113f15789888154811015156113c057fe5b9060005260206000200154965088600101600088815260200190815260200160002098508780600101985050611396565b60009550600094505b886002018054905085101561151b578860010160008a6002018781548110151561142057fe5b9060005260206000200154815260200190815260200160002093506114fa6114478d611b86565b6114ec866000018054600181600116156101000203166002900480601f0160208091040260200160405190810160405280929190818152602001828054600181600116156101000203166002900480156114e25780601f106114b7576101008083540402835291602001916114e2565b820191906000526020600020905b8154815290600101906020018083116114c557829003601f168201915b5050505050611b86565b611f1390919063ffffffff16565b9250600083141561150e576001955061151b565b84806001019550506113fa565b851515156115b7576040517f08c379a000000000000000000000000000000000000000000000000000000000815260040180806020018281038252602e8152602001807f596f752063616e6e6f7420616464206475706c6963617465206368696c64206f81526020017f6e206365727461696e206e6f646500000000000000000000000000000000000081525060400191505060405180910390fd5b8860040160009054906101000a900473ffffffffffffffffffffffffffffffffffffffff1673ffffffffffffffffffffffffffffffffffffffff163373ffffffffffffffffffffffffffffffffffffffff1614158061166257506000809054906101000a900473ffffffffffffffffffffffffffffffffffffffff1673ffffffffffffffffffffffffffffffffffffffff163373ffffffffffffffffffffffffffffffffffffffff16145b15156116fc576040517f08c379a000000000000000000000000000000000000000000000000000000000815260040180806020018281038252602e8152602001807f596f752063616e6e6f74206164642076616c696461746520796f7572206e6f6481526020017f6520627920796f75722073656c6600000000000000000000000000000000000081525060400191505060405180910390fd5b8b826000018190525033826060019073ffffffffffffffffffffffffffffffffffffffff16908173ffffffffffffffffffffffffffffffffffffffff16815250506009548260c0018181525050600090505b89805490508110156117c057600a60008360c0015181526020019081526020016000208a8281548110151561177f57fe5b90600052602060002001549080600181540180825580915050906001820390600052602060002001600090919290919091505550808060010191505061174e565b600a60008360c0015181526020019081526020016000208260c00151908060018154018082558091505090600182039060005260206000200160009091929091909150555081896001016000600954815260200190815260200160002060008201518160000190805190602001906118399291906122a6565b506020820151816002019080519060200190611856929190612326565b506040820151816003019080519060200190611873929190612373565b5060608201518160040160006101000a81548173ffffffffffffffffffffffffffffffffffffffff021916908373ffffffffffffffffffffffffffffffffffffffff1602179055506080820151816005015560a0820151816006019060001916905560c08201518160070155905050886002018260c0015190806001815401808255809150509060018203906000526020600020016000909192909190915055507f6b97cad4091131df29b56bb9e184165f2912b9e99453d1795a7bb90bbc31dcba338360c001518e604051808473ffffffffffffffffffffffffffffffffffffffff1673ffffffffffffffffffffffffffffffffffffffff16815260200183815260200180602001828103825283818151815260200191508051906020019080838360005b838110156119b4578082015181840152602081019050611999565b50505050905090810190601f1680156119e15780820380516001836020036101000a031916815260200191505b5094505050505060405180910390a16009600081548092919060010191905055508160c001519a505050505050505050505092915050565b6000600b60008373ffffffffffffffffffffffffffffffffffffffff1673ffffffffffffffffffffffffffffffffffffffff168152602001908152602001600020549050919050565b6001806000018054600181600116156101000203166002900480601f016020809104026020016040519081016040528092919081815260200182805460018160011615610100020316600290048015611afc5780601f10611ad157610100808354040283529160200191611afc565b820191906000526020600020905b815481529060010190602001808311611adf57829003601f168201915b5050505050908060040160009054906101000a900473ffffffffffffffffffffffffffffffffffffffff16908060050154908060060154908060070154905085565b600b6020528060005260406000206000915090505481565b600a60205281600052604060002081815481101515611b7157fe5b90600052602060002001600091509150505481565b611b8e61212b565b600060208301905060408051908101604052808451815260200182815250915050919050565b611bbc61212b565b6000611bda8560000151866020015186600001518760200151611ffa565b90508460200151836020018181525050846020015181038360000181815250508460000151856020015101811415611c1c576000856000018181525050611c47565b8360000151836000015101856000018181510391508181525050836000015181018560200181815250505b829150509392505050565b606080600083600001518560000151016040519080825280601f01601f191660200182016040528015611c945781602001602082028038833980820191505090505b509150602082019050611cb081866020015187600001516120e0565b611cc985600001518201856020015186600001516120e0565b819250505092915050565b606080600083600001516040519080825280601f01601f191660200182016040528015611d105781602001602082028038833980820191505090505b509150602082019050611d2c81856020015186600001516120e0565b8192505050919050565b6060600060606000806060600060649550856040519080825280601f01601f191660200182016040528015611d7a5781602001602082028038833980820191505090505b509450600093505b600088141515611e1957600a88811515611d9857fe5b069250600a88811515611da757fe5b049750826030017f0100000000000000000000000000000000000000000000000000000000000000028585806001019650815181101515611de457fe5b9060200101907effffffffffffffffffffffffffffffffffffffffffffffffffffffffffffff1916908160001a905350611d82565b836040519080825280601f01601f191660200182016040528015611e4c5781602001602082028038833980820191505090505b509150600090505b83811015611f055784816001860303815181101515611e6f57fe5b9060200101517f010000000000000000000000000000000000000000000000000000000000000090047f0100000000000000000000000000000000000000000000000000000000000000028282815181101515611ec857fe5b9060200101907effffffffffffffffffffffffffffffffffffffffffffffffffffffffffffff1916908160001a9053508080600101915050611e54565b819650505050505050919050565b60008060008060008060008060008a6000015197508a600001518a600001511015611f4057896000015197505b8a60200151965089602001519550600094505b87851015611fde5786519350855192508284141515611fc7577fffffffffffffffffffffffffffffffffffffffffffffffffffffffffffffffff91506020881015611fab57600185896020030160080260020a031991505b818316828516039050600081141515611fc657809850611fec565b5b602087019650602086019550602085019450611f53565b89600001518b600001510398505b505050505050505092915050565b60008060008060008060008060008b97508c8b1115156120ca5760208b1115156120845760018b60200360080260020a03196001029550858a511694508a8d8d010393508588511692505b8460001916836000191614151561207c578388101515612069578c8c0198506120d0565b8780600101985050858851169250612045565b8798506120d0565b8a8a209150600096505b8a8d03871115156120c9578a882090508060001916826000191614156120b6578798506120d0565b600188019750868060010197505061208e565b5b8c8c0198505b5050505050505050949350505050565b60005b60208210151561210857825184526020840193506020830192506020820391506120e3565b6001826020036101000a0390508019835116818551168181178652505050505050565b604080519081016040528060008152602001600081525090565b828054600181600116156101000203166002900490600052602060002090601f016020900481019282601f1061218657805160ff19168380011785556121b4565b828001600101855582156121b4579182015b828111156121b3578251825591602001919060010190612198565b5b5090506121c191906123d3565b5090565b50805460018160011615610100020316600290046000825580601f106121eb575061220a565b601f01602090049060005260206000209081019061220991906123d3565b5b50565b508054600082559060005260206000209081019061222b91906123d3565b50565b508054600082559060005260206000209081019061224c91906123f8565b50565b60e060405190810160405280606081526020016060815260200160608152602001600073ffffffffffffffffffffffffffffffffffffffff1681526020016000815260200160008019168152602001600081525090565b828054600181600116156101000203166002900490600052602060002090601f016020900481019282601f106122e757805160ff1916838001178555612315565b82800160010185558215612315579182015b828111156123145782518255916020019190600101906122f9565b5b50905061232291906123d3565b5090565b828054828255906000526020600020908101928215612362579160200282015b82811115612361578251825591602001919060010190612346565b5b50905061236f91906123d3565b5090565b8280548282559060005260206000209081019282156123c2579160200282015b828111156123c15782518290805190602001906123b19291906122a6565b5091602001919060010190612393565b5b5090506123cf91906123f8565b5090565b6123f591905b808211156123f15760008160009055506001016123d9565b5090565b90565b61242191905b8082111561241d576000818161241491906121c5565b506001016123fe565b5090565b905600a165627a7a723058205da8ef0642e25fda742c68992f8ae3bb9bfdf1c626e5ce0a2c933548f2111fdd0029",
  "source": "\r\npragma solidity ^0.4.24;\r\n//import \"github.com/Arachnid/solidity-stringutils/strings.sol\";\r\nimport \"./strings.sol\";\r\n//import \"./ConcatUtils.sol\";\r\n\r\n\r\ncontract SemanticNet {\r\n    \r\n      using strings for *;\r\n      \r\n\r\n      \r\n    event LogDebug(string gotTo);\r\n    event AddingNode(address fromAddr, uint number,string fullName);\r\n        \r\n    address public owner;\r\n    Node public mainNode;\r\n    uint public nodeNumber = 0;\r\n    //additional map to simplify the search in the tree\r\n    //contains node number -> uniqueIdentifier of all nested items\r\n    mapping(uint=>uint[]) public flattenTree;\r\n    \r\n    mapping(address=>int) public votesSum;\r\n    \r\n    constructor() public {\r\n        owner = msg.sender;\r\n        mainNode.name = \"Blockchain\";\r\n       // mainNode.name = sha3(mainNode.name);\r\n         //mainNode.uniqueIdentifier = keccak256(abi.encodePacked(mainNode.name));\r\n         mainNode.creator = msg.sender;\r\n         mainNode.number = nodeNumber;\r\n         flattenTree[0].push(nodeNumber);\r\n         \r\n         nodeNumber++;\r\n        \r\n         addNode(0,\"Block\"); //1\r\n         addNode(1,\"Transaction\"); //2\r\n         addNode(0,\"Node\"); //3\r\n         addNode(3,\"Peer\");//4\r\n        //  addNode(0,\"Miner\",owner);//5\r\n        //  addNode(0,\"Wallet\",owner);//6\r\n    }\r\n    \r\n       modifier indexRange(uint nodeIndex)\r\n    {\r\n        require(nodeIndex<nodeNumber, \"Please provide existing index\");\r\n        // Do not forget the \"_;\"! It will\r\n        // be replaced by the actual function\r\n        // body when the modifier is used.\r\n        _;\r\n    }\r\n    \r\n    function getUserVotes(address user) view public returns (int){\r\n        return votesSum[user];\r\n    }\r\n    \r\n    function vote(bool positive, uint nodeIndex) public {\r\n        \r\n        uint[] storage pathToNode = flattenTree[nodeIndex];\r\n        Node storage  ourNode = mainNode;\r\n        uint  index = 1;\r\n\r\n        //constant speed of searching\r\n        while(ourNode.number!= nodeIndex && index < pathToNode.length){\r\n            \r\n            uint nextItem = pathToNode[index];\r\n            ourNode = ourNode.children[nextItem];\r\n            \r\n            index++;\r\n        }\r\n        \r\n        if(positive){\r\n            ourNode.votes++;\r\n            votesSum[ourNode.creator]++;\r\n        }else{\r\n            ourNode.votes--;\r\n            votesSum[ourNode.creator]--;\r\n        }\r\n    }\r\n    \r\n    \r\n     function addResources(uint nodeIndex,uint resourcesCount,string hashes,string contentTypes) public indexRange(nodeIndex) {\r\n\r\n        uint[] storage pathToNode = flattenTree[nodeIndex];\r\n        Node storage  ourNode = mainNode;\r\n        uint  index = 1;\r\n\r\n        //constant speed of searching\r\n        while(ourNode.number!= nodeIndex && index < pathToNode.length){\r\n            \r\n            uint nextItem = pathToNode[index];\r\n            ourNode = ourNode.children[nextItem];\r\n            \r\n            index++;\r\n        }\r\n        \r\n        \r\n         var h = hashes.toSlice();\r\n         var t = contentTypes.toSlice();\r\n          strings.slice memory hash;\r\n          strings.slice memory cType;\r\n        // s.split(\".\".toSlice(), part); // part and return value is \"www\"\r\n        // s.split(\".\".toSlice(), part); // part and return value is \"google\"\r\n         for (uint j=0; j< resourcesCount; j++) {\r\n             \r\n             h.split(\",\".toSlice(), hash); \r\n             t.split(\",\".toSlice(), cType); \r\n           // ourNode.resourcesHashes[hash.toString()]=cType.toString();\r\n            ourNode.resourcesKeys.push((hash.concat(\"-\".toSlice()).toSlice().concat(cType).toSlice()).toString());\r\n             \r\n         }\r\n        \r\n        \r\n    \r\n     }\r\n    \r\n    //name,creator,resourcesJoined, childrenJoined\r\n    function getNodeJson(uint nodeIndex) view public  returns (string,address,string,string,int){ //indexRange(nodeIndex)\r\n        require(nodeIndex<nodeNumber, \"Please provide existing index\");\r\n        \r\n        uint[] storage pathToNode = flattenTree[nodeIndex];\r\n        Node storage  ourNode = mainNode;\r\n        uint  index = 1;\r\n\r\n        //constant speed of searching\r\n        while(ourNode.number!= nodeIndex && index < pathToNode.length){\r\n            \r\n            uint nextItem = pathToNode[index];\r\n            ourNode = ourNode.children[nextItem];\r\n            \r\n            index++;\r\n        }\r\n        \r\n        strings.slice memory resources;\r\n           for (uint i=0; i< ourNode.resourcesKeys.length; i++) {\r\n          \r\n           resources = resources\r\n           .concat(ourNode.resourcesKeys[i].toSlice()).toSlice()\r\n           .concat(\",\".toSlice()).toSlice();\r\n           \r\n        }\r\n        \r\n            strings.slice memory childrenItems = \"\".toSlice();\r\n          for (uint j=0; j< ourNode.childrenKeys.length; j++) {\r\n          \r\n          childrenItems = childrenItems\r\n          .concat(uintToString(ourNode.children[ourNode.childrenKeys[j]].number).toSlice()).toSlice()\r\n          .concat(\",\".toSlice()).toSlice();\r\n         }\r\n        \r\n        \r\n        return (ourNode.name, ourNode.creator,resources.toString(),childrenItems.toString(),ourNode.votes);\r\n        \r\n        \r\n    }\r\n    \r\n \r\n    \r\n     function removeNode(uint parentNumber, uint nodeIndex)  public  indexRange(nodeIndex) {\r\n        \r\n        uint[] storage pathToNode = flattenTree[parentNumber];\r\n        Node storage  parentNode = mainNode;\r\n        uint  index = 1;\r\n\r\n\r\n        while(parentNode.number!=parentNumber && index < pathToNode.length){\r\n            \r\n            uint nextItem = pathToNode[index];\r\n            parentNode = parentNode.children[nextItem];\r\n\r\n            index++;\r\n        }\r\n        \r\n        Node storage ourNode = parentNode.children[nodeIndex];\r\n        require(ourNode.childrenKeys.length==0, \"You cannot delete confired node\");\r\n        require(ourNode.creator == msg.sender || ourNode.creator == owner, \"Only the creator of node can delete it\");\r\n        \r\n        delete parentNode.children[nodeIndex];\r\n        \r\n         uint deleteIndex = parentNode.childrenKeys.length - 1;\r\n            for (uint j=0; j<parentNode.childrenKeys.length; j++) {\r\n           \r\n            if(parentNode.childrenKeys[j]==nodeIndex){\r\n                deleteIndex = j;\r\n                break;\r\n            }\r\n        }\r\n        \r\n        //leaving gaps but..\r\n        delete parentNode.childrenKeys[deleteIndex];\r\n        //parentNode.childrenKeys.length--;\r\n        \r\n        //nodeNumber--;\r\n     }\r\n\r\n    \r\n    function addNode(uint parentNumber, string _name) public  returns (uint){ \r\n        \r\n\r\n        uint[] storage pathToNode = flattenTree[parentNumber];\r\n        Node storage  parentNode = mainNode;\r\n        uint  index = 1;\r\n\r\n\r\n        while(parentNode.number!=parentNumber && index < pathToNode.length){\r\n            \r\n            uint nextItem = pathToNode[index];\r\n            parentNode = parentNode.children[nextItem];\r\n\r\n            index++;\r\n        }\r\n\r\n       \r\n       bool hasSameChild = false;\r\n        //\"foobie\".toSlice().compare(\"foobie\".toSlice()\r\n        for (uint j=0; j<parentNode.childrenKeys.length; j++) {\r\n            Node storage child = parentNode.children[parentNode.childrenKeys[j]];\r\n            int compareResult = child.name.toSlice().compare(_name.toSlice());\r\n            if(compareResult==0){\r\n                hasSameChild = true;\r\n                break;\r\n            }\r\n        }\r\n        require(!hasSameChild,\"You cannot add duplicate child on certain node\");\r\n        require(msg.sender!=parentNode.creator || msg.sender == owner,\"You cannot add validate your node by your self\");\r\n        \r\n     \r\n        Node memory newNode;\r\n        newNode.name = _name;\r\n        newNode.creator = msg.sender;\r\n        newNode.number = nodeNumber;\r\n\r\n        \r\n        //copy the path to the parent in the flatten array of the new Item: ???\r\n        for (uint i=0; i<pathToNode.length; i++) {\r\n          flattenTree[newNode.number].push(pathToNode[i]);\r\n        }\r\n        \r\n        //keeping the flatten array actual\r\n        flattenTree[newNode.number].push(newNode.number);\r\n        \r\n        \r\n         \r\n        \r\n        parentNode.children[nodeNumber] = newNode;\r\n        parentNode.childrenKeys.push(newNode.number);\r\n        \r\n        emit AddingNode(msg.sender,newNode.number,_name);\r\n        nodeNumber++;  \r\n        \r\n        return newNode.number;\r\n    }\r\n    \r\n    \r\n    \r\n   function uintToString(uint v) internal pure returns (string str) {\r\n        uint maxlength = 100;\r\n        bytes memory reversed = new bytes(maxlength);\r\n        uint i = 0;\r\n        while (v != 0) {\r\n            uint remainder = v % 10;\r\n            v = v / 10;\r\n            reversed[i++] = byte(48 + remainder);\r\n        }\r\n        bytes memory s = new bytes(i);\r\n        for (uint j = 0; j < i; j++) {\r\n            s[j] = reversed[i - 1 - j];\r\n        }\r\n        str = string(s);\r\n    } \r\n    \r\n    \r\n    //Represents entity in the Blockchain Semantic Net\r\n    struct Node {\r\n    \r\n        //the term\r\n        //shoud be unique in it's own chain (containing parent names)\r\n        //for example: \r\n        //Blockchain->Node->Transaction is OK\r\n        //|>address -> Transaction is OK\r\n        string name;\r\n        \r\n        //keccak256 of the name + parent names recursivly \r\n       // bytes32 uniqueIdentifier;\r\n        \r\n        //TODO: think about if should be tree or Graph???\r\n        \r\n        //related terms in format unique Identifier => node\r\n        mapping(uint => Node)  children;\r\n        \r\n        //helper arrrays \r\n        uint[] childrenKeys;\r\n        \r\n      \r\n        //ipfs hash of term resource ->Hash->content type\r\n       // mapping(string=>string)  resourcesHashes;\r\n        \r\n        string[] resourcesKeys;\r\n        \r\n        address  creator ;\r\n        //can be positive or nagative value\r\n        int votes;\r\n        //The parent node if has any\r\n        bytes32   parentNodeHash ;\r\n        \r\n        //autoincrement unique number;\r\n        uint number;\r\n        \r\n    }\r\n    \r\n    \r\n\r\n}\r\n\r\n//Getting ideas from\r\n//http://www.introprogramming.info/english-intro-csharp-book/read-online/chapter-17-trees-and-graphs/\r\n//https://medium.com/coinmonks/linked-lists-in-solidity-cfd967af389b",
  "sourcePath": "F:\\softuni\\blockchain\\Single Project\\Blockchain Semantic Web\\BlockchainSemanticNet\\contracts\\SemanticNet.sol",
  "compiler": {
    "name": "solc",
    "version": "0.4.24+commit.e67f0147.Emscripten.clang"
  },
  "schemaVersion": "2.0.1",
  "updatedAt": "2018-07-13T13:55:08.161Z"
}